:1000000014EF01F00A436F6E74696E7561722028F7
:10001000532C4E293F000C79612068612064617483
:100020006F004E6F20686179206461746F005553D2
:100030004152542037420000EA6A0B0EE96EEF503D
:100040000DE0020E016E006A002EFED7012EFBD7D6
:10005000970E006E002EFED7EF2EF3D71200103849
:10006000F00B006E0F0E8C1400108C6E00008C8054
:1000700000D000D08C9012008350006E00380F0B1F
:10008000016E12000F0E9514F009956E8C8400001D
:100090008C800000F1DF01C010F08C9000008C809B
:1000A00000D0EADF01C00FF08C900F0E9514956E12
:1000B0001038006EF00E001600500F10016E66EF43
:1000C00000F09590959295948C92DCD701C00FF03A
:1000D00001BEFBD78C920DB08C8200008C94000086
:1000E0008C900E380F6E0F0E0F160FC010F0B7DF8A
:1000F0000E500F0B0F6E106EB2DF1200280E076E3F
:100100000C0E086E010E096E060E0A6E8C908C9213
:100110008C940F0E9514956E9590959295940F0E64
:100120000B6E8ADF010E066E0650030808E3030E0D
:10013000106E95DF050E0B6E7FDF062AF5D7020ED7
:10014000106E8DDF050E0B6E77DF066A0650030812
:100150000FE3036A0650070FE96E000E0320EA6EF4
:10016000EFCF0BF00D6A0BC00EF0ABDF062AEED717
:1001700027EF01F00A2C01D003D0400E0B6E01D006
:100180000B6A010E095C0B260B5080090C6E0D6A80
:100190000E6E97DF12000850070A07E00B0A0AE00C
:1001A000060A10E0020A14E018D0010E096E0A6E69
:1001B000E1DF18D00D6A010E0E6E83DF020E0B6EAA
:1001C0003BDF10D0010E096E020E0A6ED3DF0AD09B
:1001D0000D6A100E0E6E75DF05D0010E0D6E08C093
:1001E0000EF06FDF12000900F5520DE0F6CF06F0B9
:1001F000F7CF07F0F5509EA8FED7AD6E06C0F6FF0C
:1002000007C0F7FFF0D712000900F5520CE0F6CF57
:1002100006F0F7CF07F0F5CF08F0BDDF06C0F6FF18
:1002200007C0F7FFF1D71200F86AD09E700ED36EA8
:10023000D350B8960C0EAF6EA20EAC6E900EAB6E95
:10024000C150C00B0F09C16E070EB46E57D7010E17
:10025000096E0A6E8FDF0C0E086E9DDF040EF66EBF
:10026000000EF76EC0DF9EAA0AD09EAAFED7AECFC0
:1002700005F0160EF66E000EF76EC6DF05D0220EE4
:10028000F66E000EF76EC0DF0550530803E0055010
:100290004E08E9E12E0EF66E000EF76EA4DF370E63
:1002A000086E79DF420E086E76DF640E0B6EC4DED8
:0402B000D5D703009B
:020000040030CA
:0E0000003FC83E1E0087A1000FC00FE00F405A
:00000001FF
;PIC18F4550
;CRC=A496  CREATED="30-oct.-18 14:51"
